{
  "contractName": "Election",
  "abi": [
    {
      "constant": true,
      "inputs": [
        {
          "name": "",
          "type": "uint256"
        }
      ],
      "name": "candidates",
      "outputs": [
        {
          "name": "id",
          "type": "uint256"
        },
        {
          "name": "name",
          "type": "string"
        },
        {
          "name": "numVotes",
          "type": "uint256"
        }
      ],
      "payable": false,
      "stateMutability": "view",
      "type": "function"
    },
    {
      "constant": true,
      "inputs": [],
      "name": "numCandidates",
      "outputs": [
        {
          "name": "",
          "type": "uint256"
        }
      ],
      "payable": false,
      "stateMutability": "view",
      "type": "function"
    },
    {
      "constant": true,
      "inputs": [],
      "name": "owner",
      "outputs": [
        {
          "name": "",
          "type": "address"
        }
      ],
      "payable": false,
      "stateMutability": "view",
      "type": "function"
    },
    {
      "constant": true,
      "inputs": [
        {
          "name": "",
          "type": "address"
        }
      ],
      "name": "voters",
      "outputs": [
        {
          "name": "",
          "type": "bool"
        }
      ],
      "payable": false,
      "stateMutability": "view",
      "type": "function"
    },
    {
      "inputs": [],
      "payable": false,
      "stateMutability": "nonpayable",
      "type": "constructor"
    },
    {
      "constant": true,
      "inputs": [],
      "name": "getOwner",
      "outputs": [
        {
          "name": "",
          "type": "address"
        }
      ],
      "payable": false,
      "stateMutability": "view",
      "type": "function"
    },
    {
      "constant": false,
      "inputs": [
        {
          "name": "_name",
          "type": "string"
        }
      ],
      "name": "addCandidate",
      "outputs": [],
      "payable": false,
      "stateMutability": "nonpayable",
      "type": "function"
    },
    {
      "constant": true,
      "inputs": [],
      "name": "getNumCandidates",
      "outputs": [
        {
          "name": "",
          "type": "uint256"
        }
      ],
      "payable": false,
      "stateMutability": "view",
      "type": "function"
    },
    {
      "constant": true,
      "inputs": [
        {
          "name": "_candidateId",
          "type": "uint256"
        }
      ],
      "name": "getCandidateName",
      "outputs": [
        {
          "name": "",
          "type": "string"
        }
      ],
      "payable": false,
      "stateMutability": "view",
      "type": "function"
    },
    {
      "constant": true,
      "inputs": [
        {
          "name": "_candidateId",
          "type": "uint256"
        }
      ],
      "name": "getCandidateVotes",
      "outputs": [
        {
          "name": "",
          "type": "uint256"
        }
      ],
      "payable": false,
      "stateMutability": "view",
      "type": "function"
    },
    {
      "constant": true,
      "inputs": [],
      "name": "hasVoted",
      "outputs": [
        {
          "name": "",
          "type": "bool"
        }
      ],
      "payable": false,
      "stateMutability": "view",
      "type": "function"
    },
    {
      "constant": false,
      "inputs": [
        {
          "name": "_candidateId",
          "type": "uint256"
        }
      ],
      "name": "vote",
      "outputs": [],
      "payable": false,
      "stateMutability": "nonpayable",
      "type": "function"
    },
    {
      "constant": false,
      "inputs": [],
      "name": "start",
      "outputs": [],
      "payable": false,
      "stateMutability": "nonpayable",
      "type": "function"
    },
    {
      "constant": false,
      "inputs": [],
      "name": "end",
      "outputs": [],
      "payable": false,
      "stateMutability": "nonpayable",
      "type": "function"
    },
    {
      "constant": true,
      "inputs": [],
      "name": "getStart",
      "outputs": [
        {
          "name": "",
          "type": "bool"
        }
      ],
      "payable": false,
      "stateMutability": "view",
      "type": "function"
    },
    {
      "constant": true,
      "inputs": [],
      "name": "getEnd",
      "outputs": [
        {
          "name": "",
          "type": "bool"
        }
      ],
      "payable": false,
      "stateMutability": "view",
      "type": "function"
    }
  ],
  "bytecode": "0x6060604052341561000f57600080fd5b336000806101000a81548173ffffffffffffffffffffffffffffffffffffffff021916908373ffffffffffffffffffffffffffffffffffffffff16021790555060008060146101000a81548160ff02191690831515021790555060008060156101000a81548160ff0219169083151502179055506000600181905550610b2d8061009a6000396000f300606060405236156100d9576000357c0100000000000000000000000000000000000000000000000000000000900463ffffffff1680630121b93f146100de5780633477ee2e14610101578063462e91ec146101c85780635216509a146102255780635c06b06e1461024e5780636482133814610277578063866163c0146102a4578063893d20e8146102db5780638da5cb5b146103305780639f05a36d14610385578063a3ec138d146103b2578063be9a655514610403578063c5292c6714610418578063e13804a714610445578063efbe1c1c146104e1575b600080fd5b34156100e957600080fd5b6100ff60048080359060200190919050506104f6565b005b341561010c57600080fd5b6101226004808035906020019091905050610631565b60405180848152602001806020018381526020018281038252848181546001816001161561010002031660029004815260200191508054600181600116156101000203166002900480156101b75780601f1061018c576101008083540402835291602001916101b7565b820191906000526020600020905b81548152906001019060200180831161019a57829003601f168201915b505094505050505060405180910390f35b34156101d357600080fd5b610223600480803590602001908201803590602001908080601f0160208091040260200160405190810160405280939291908181526020018383808284378201915050505050509190505061065a565b005b341561023057600080fd5b610238610732565b6040518082815260200191505060405180910390f35b341561025957600080fd5b610261610738565b6040518082815260200191505060405180910390f35b341561028257600080fd5b61028a610742565b604051808215151515815260200191505060405180910390f35b34156102af57600080fd5b6102c560048080359060200190919050506107a7565b6040518082815260200191505060405180910390f35b34156102e657600080fd5b6102ee6107e3565b604051808273ffffffffffffffffffffffffffffffffffffffff1673ffffffffffffffffffffffffffffffffffffffff16815260200191505060405180910390f35b341561033b57600080fd5b61034361080c565b604051808273ffffffffffffffffffffffffffffffffffffffff1673ffffffffffffffffffffffffffffffffffffffff16815260200191505060405180910390f35b341561039057600080fd5b610398610831565b604051808215151515815260200191505060405180910390f35b34156103bd57600080fd5b6103e9600480803573ffffffffffffffffffffffffffffffffffffffff16906020019091905050610847565b604051808215151515815260200191505060405180910390f35b341561040e57600080fd5b610416610867565b005b341561042357600080fd5b61042b6108df565b604051808215151515815260200191505060405180910390f35b341561045057600080fd5b61046660048080359060200190919050506108f5565b6040518080602001828103825283818151815260200191508051906020019080838360005b838110156104a657808201518184015260208101905061048b565b50505050905090810190601f1680156104d35780820380516001836020036101000a031916815260200191505b509250505060405180910390f35b34156104ec57600080fd5b6104f46109d0565b005b60011515600060149054906101000a900460ff16151514151561051857600080fd5b60001515600060159054906101000a900460ff16151514151561053a57600080fd5b600360003373ffffffffffffffffffffffffffffffffffffffff1673ffffffffffffffffffffffffffffffffffffffff16815260200190815260200160002060009054906101000a900460ff1615151561059357600080fd5b6000811180156105a557506001548111155b15156105b057600080fd5b60026000828152602001908152602001600020600201600081548092919060010191905055506001600360003373ffffffffffffffffffffffffffffffffffffffff1673ffffffffffffffffffffffffffffffffffffffff16815260200190815260200160002060006101000a81548160ff02191690831515021790555050565b600260205280600052604060002060009150905080600001549080600101908060020154905083565b6000809054906101000a900473ffffffffffffffffffffffffffffffffffffffff1673ffffffffffffffffffffffffffffffffffffffff163373ffffffffffffffffffffffffffffffffffffffff161415156106b557600080fd5b60016000815480929190600101919050555060606040519081016040528060015481526020018281526020016000815250600260006001548152602001908152602001600020600082015181600001556020820151816001019080519060200190610721929190610a48565b506040820151816002015590505050565b60015481565b6000600154905090565b6000600360003373ffffffffffffffffffffffffffffffffffffffff1673ffffffffffffffffffffffffffffffffffffffff16815260200190815260200160002060009054906101000a900460ff161561079f57600190506107a4565b600090505b90565b600080821180156107ba57506001548211155b15156107c557600080fd5b60026000838152602001908152602001600020600201549050919050565b60008060009054906101000a900473ffffffffffffffffffffffffffffffffffffffff16905090565b6000809054906101000a900473ffffffffffffffffffffffffffffffffffffffff1681565b60008060159054906101000a900460ff16905090565b60036020528060005260406000206000915054906101000a900460ff1681565b6000809054906101000a900473ffffffffffffffffffffffffffffffffffffffff1673ffffffffffffffffffffffffffffffffffffffff163373ffffffffffffffffffffffffffffffffffffffff161415156108c257600080fd5b6001600060146101000a81548160ff021916908315150217905550565b60008060149054906101000a900460ff16905090565b6108fd610ac8565b60008211801561090f57506001548211155b151561091a57600080fd5b600260008381526020019081526020016000206001018054600181600116156101000203166002900480601f0160208091040260200160405190810160405280929190818152602001828054600181600116156101000203166002900480156109c45780601f10610999576101008083540402835291602001916109c4565b820191906000526020600020905b8154815290600101906020018083116109a757829003601f168201915b50505050509050919050565b6000809054906101000a900473ffffffffffffffffffffffffffffffffffffffff1673ffffffffffffffffffffffffffffffffffffffff163373ffffffffffffffffffffffffffffffffffffffff16141515610a2b57600080fd5b6001600060156101000a81548160ff021916908315150217905550565b828054600181600116156101000203166002900490600052602060002090601f016020900481019282601f10610a8957805160ff1916838001178555610ab7565b82800160010185558215610ab7579182015b82811115610ab6578251825591602001919060010190610a9b565b5b509050610ac49190610adc565b5090565b602060405190810160405280600081525090565b610afe91905b80821115610afa576000816000905550600101610ae2565b5090565b905600a165627a7a7230582039ba296c2c70f1a2d3961dc6d3189ebf78beac689c628b191d94fdd604945e9f0029",
  "source": "// SPDX-License-Identifier: MIT\r\npragma solidity ^0.4.17;\r\n\r\ncontract Election {\r\n    // model variables\r\n    address public owner;\r\n    bool hasStarted;\r\n    bool hasEnded;\r\n    uint public numCandidates;\r\n    struct Candidate {\r\n        uint id;\r\n        string name;\r\n        uint numVotes;\r\n    }\r\n    mapping(uint => Candidate) public candidates;\r\n    mapping(address => bool) public voters;\r\n\r\n    function Election() public {\r\n        owner = msg.sender;\r\n        hasStarted = false;\r\n        hasEnded = false;\r\n        numCandidates = 0;\r\n    }\r\n\r\n    function getOwner() public view returns (address) {\r\n        return owner;\r\n    }\r\n\r\n    // restrict functions to admin view\r\n    modifier adminOnly() {\r\n        require(msg.sender == owner);\r\n        _;\r\n    }\r\n\r\n    function addCandidate(string _name) public adminOnly {\r\n        numCandidates++;\r\n        candidates[numCandidates] = Candidate({\r\n            id: numCandidates,\r\n            name: _name,\r\n            numVotes: 0\r\n        });\r\n    }\r\n\r\n    function getNumCandidates() public view returns (uint) {\r\n        return numCandidates;\r\n    }\r\n\r\n    function getCandidateName(uint _candidateId) public view returns (string) {\r\n        require(_candidateId > 0 && _candidateId <= numCandidates);\r\n        return candidates[_candidateId].name;\r\n    }\r\n\r\n    function getCandidateVotes(uint _candidateId) public view returns (uint) {\r\n        require(_candidateId > 0 && _candidateId <= numCandidates);\r\n        return candidates[_candidateId].numVotes;\r\n    }\r\n\r\n    function hasVoted() public view returns (bool) {\r\n        if (voters[msg.sender]) {\r\n            return true;\r\n        }\r\n        return false;\r\n    }\r\n\r\n    function vote(uint _candidateId) public {\r\n        require(hasStarted == true);\r\n        require(hasEnded == false);\r\n        require(!voters[msg.sender]);\r\n        require(_candidateId > 0 && _candidateId <= numCandidates);\r\n        candidates[_candidateId].numVotes++;\r\n        voters[msg.sender] = true;\r\n    }\r\n\r\n    function start() public adminOnly {\r\n        hasStarted = true;\r\n    }\r\n\r\n    function end() public adminOnly {\r\n        hasEnded = true;\r\n    }\r\n\r\n    function getStart() public view returns (bool) {\r\n        return hasStarted;\r\n    }\r\n\r\n    function getEnd() public view returns (bool) {\r\n        return hasEnded;\r\n    }\r\n}",
  "sourcePath": "C:\\Users\\aweso\\Documents\\spring_2022\\cs_4675\\hw3\\contracts\\Election.sol",
  "compiler": {
    "name": "solc",
    "version": "0.4.17+commit.bdeb9e52.Emscripten.clang"
  },
  "schemaVersion": "3.4.5",
  "updatedAt": "2022-03-11T03:42:15.506Z",
  "networkType": "ethereum",
  "devdoc": {
    "methods": {}
  },
  "userdoc": {
    "methods": {}
  }
}