{
  "contractName": "Election",
  "abi": [
    {
      "constant": true,
      "inputs": [
        {
          "name": "",
          "type": "uint256"
        }
      ],
      "name": "candidates",
      "outputs": [
        {
          "name": "id",
          "type": "uint256"
        },
        {
          "name": "name",
          "type": "string"
        },
        {
          "name": "numVotes",
          "type": "uint256"
        }
      ],
      "payable": false,
      "stateMutability": "view",
      "type": "function"
    },
    {
      "constant": true,
      "inputs": [],
      "name": "numCandidates",
      "outputs": [
        {
          "name": "",
          "type": "uint256"
        }
      ],
      "payable": false,
      "stateMutability": "view",
      "type": "function"
    },
    {
      "constant": true,
      "inputs": [],
      "name": "owner",
      "outputs": [
        {
          "name": "",
          "type": "address"
        }
      ],
      "payable": false,
      "stateMutability": "view",
      "type": "function"
    },
    {
      "constant": true,
      "inputs": [
        {
          "name": "",
          "type": "address"
        }
      ],
      "name": "voters",
      "outputs": [
        {
          "name": "",
          "type": "bool"
        }
      ],
      "payable": false,
      "stateMutability": "view",
      "type": "function"
    },
    {
      "inputs": [],
      "payable": false,
      "stateMutability": "nonpayable",
      "type": "constructor"
    },
    {
      "constant": true,
      "inputs": [],
      "name": "getOwner",
      "outputs": [
        {
          "name": "",
          "type": "address"
        }
      ],
      "payable": false,
      "stateMutability": "view",
      "type": "function"
    },
    {
      "constant": false,
      "inputs": [
        {
          "name": "_name",
          "type": "string"
        }
      ],
      "name": "addCandidate",
      "outputs": [],
      "payable": false,
      "stateMutability": "nonpayable",
      "type": "function"
    },
    {
      "constant": true,
      "inputs": [],
      "name": "getNumCandidates",
      "outputs": [
        {
          "name": "",
          "type": "uint256"
        }
      ],
      "payable": false,
      "stateMutability": "view",
      "type": "function"
    },
    {
      "constant": false,
      "inputs": [
        {
          "name": "_candidateId",
          "type": "uint256"
        }
      ],
      "name": "vote",
      "outputs": [],
      "payable": false,
      "stateMutability": "nonpayable",
      "type": "function"
    },
    {
      "constant": false,
      "inputs": [],
      "name": "start",
      "outputs": [],
      "payable": false,
      "stateMutability": "nonpayable",
      "type": "function"
    },
    {
      "constant": false,
      "inputs": [],
      "name": "end",
      "outputs": [],
      "payable": false,
      "stateMutability": "nonpayable",
      "type": "function"
    },
    {
      "constant": true,
      "inputs": [],
      "name": "getStart",
      "outputs": [
        {
          "name": "",
          "type": "bool"
        }
      ],
      "payable": false,
      "stateMutability": "view",
      "type": "function"
    },
    {
      "constant": true,
      "inputs": [],
      "name": "getEnd",
      "outputs": [
        {
          "name": "",
          "type": "bool"
        }
      ],
      "payable": false,
      "stateMutability": "view",
      "type": "function"
    }
  ],
  "bytecode": "0x6060604052341561000f57600080fd5b336000806101000a81548173ffffffffffffffffffffffffffffffffffffffff021916908373ffffffffffffffffffffffffffffffffffffffff16021790555060008060146101000a81548160ff02191690831515021790555060008060156101000a81548160ff021916908315150217905550600060018190555061087c8061009a6000396000f300606060405236156100b8576000357c0100000000000000000000000000000000000000000000000000000000900463ffffffff1680630121b93f146100bd5780633477ee2e146100e0578063462e91ec146101a75780635216509a146102045780635c06b06e1461022d578063893d20e8146102565780638da5cb5b146102ab5780639f05a36d14610300578063a3ec138d1461032d578063be9a65551461037e578063c5292c6714610393578063efbe1c1c146103c0575b600080fd5b34156100c857600080fd5b6100de60048080359060200190919050506103d5565b005b34156100eb57600080fd5b6101016004808035906020019091905050610510565b60405180848152602001806020018381526020018281038252848181546001816001161561010002031660029004815260200191508054600181600116156101000203166002900480156101965780601f1061016b57610100808354040283529160200191610196565b820191906000526020600020905b81548152906001019060200180831161017957829003601f168201915b505094505050505060405180910390f35b34156101b257600080fd5b610202600480803590602001908201803590602001908080601f01602080910402602001604051908101604052809392919081815260200183838082843782019150505050505091905050610539565b005b341561020f57600080fd5b610217610611565b6040518082815260200191505060405180910390f35b341561023857600080fd5b610240610617565b6040518082815260200191505060405180910390f35b341561026157600080fd5b610269610621565b604051808273ffffffffffffffffffffffffffffffffffffffff1673ffffffffffffffffffffffffffffffffffffffff16815260200191505060405180910390f35b34156102b657600080fd5b6102be61064a565b604051808273ffffffffffffffffffffffffffffffffffffffff1673ffffffffffffffffffffffffffffffffffffffff16815260200191505060405180910390f35b341561030b57600080fd5b61031361066f565b604051808215151515815260200191505060405180910390f35b341561033857600080fd5b610364600480803573ffffffffffffffffffffffffffffffffffffffff16906020019091905050610685565b604051808215151515815260200191505060405180910390f35b341561038957600080fd5b6103916106a5565b005b341561039e57600080fd5b6103a661071d565b604051808215151515815260200191505060405180910390f35b34156103cb57600080fd5b6103d3610733565b005b60011515600060149054906101000a900460ff1615151415156103f757600080fd5b60001515600060159054906101000a900460ff16151514151561041957600080fd5b600360003373ffffffffffffffffffffffffffffffffffffffff1673ffffffffffffffffffffffffffffffffffffffff16815260200190815260200160002060009054906101000a900460ff1615151561047257600080fd5b60008111801561048457506001548111155b151561048f57600080fd5b60026000828152602001908152602001600020600201600081548092919060010191905055506001600360003373ffffffffffffffffffffffffffffffffffffffff1673ffffffffffffffffffffffffffffffffffffffff16815260200190815260200160002060006101000a81548160ff02191690831515021790555050565b600260205280600052604060002060009150905080600001549080600101908060020154905083565b6000809054906101000a900473ffffffffffffffffffffffffffffffffffffffff1673ffffffffffffffffffffffffffffffffffffffff163373ffffffffffffffffffffffffffffffffffffffff1614151561059457600080fd5b600160008154809291906001019190505550606060405190810160405280600154815260200182815260200160008152506002600060015481526020019081526020016000206000820151816000015560208201518160010190805190602001906106009291906107ab565b506040820151816002015590505050565b60015481565b6000600154905090565b60008060009054906101000a900473ffffffffffffffffffffffffffffffffffffffff16905090565b6000809054906101000a900473ffffffffffffffffffffffffffffffffffffffff1681565b60008060159054906101000a900460ff16905090565b60036020528060005260406000206000915054906101000a900460ff1681565b6000809054906101000a900473ffffffffffffffffffffffffffffffffffffffff1673ffffffffffffffffffffffffffffffffffffffff163373ffffffffffffffffffffffffffffffffffffffff1614151561070057600080fd5b6001600060146101000a81548160ff021916908315150217905550565b60008060149054906101000a900460ff16905090565b6000809054906101000a900473ffffffffffffffffffffffffffffffffffffffff1673ffffffffffffffffffffffffffffffffffffffff163373ffffffffffffffffffffffffffffffffffffffff1614151561078e57600080fd5b6001600060156101000a81548160ff021916908315150217905550565b828054600181600116156101000203166002900490600052602060002090601f016020900481019282601f106107ec57805160ff191683800117855561081a565b8280016001018555821561081a579182015b828111156108195782518255916020019190600101906107fe565b5b509050610827919061082b565b5090565b61084d91905b80821115610849576000816000905550600101610831565b5090565b905600a165627a7a72305820a82dd53a52e54e28830b3728b690eddaf7146958847bba01a7370ed7c4e57c000029",
  "source": "// SPDX-License-Identifier: MIT\r\npragma solidity ^0.4.17;\r\n\r\ncontract Election {\r\n    // model variables\r\n    address public owner;\r\n    bool hasStarted;\r\n    bool hasEnded;\r\n    uint public numCandidates;\r\n    struct Candidate {\r\n        uint id;\r\n        string name;\r\n        uint numVotes;\r\n    }\r\n    mapping(uint => Candidate) public candidates;\r\n    mapping(address => bool) public voters;\r\n\r\n    function Election() public {\r\n        owner = msg.sender;\r\n        hasStarted = false;\r\n        hasEnded = false;\r\n        numCandidates = 0;\r\n    }\r\n\r\n    function getOwner() public view returns (address) {\r\n        return owner;\r\n    }\r\n\r\n    // restrict functions to admin view\r\n    modifier adminOnly() {\r\n        require(msg.sender == owner);\r\n        _;\r\n    }\r\n\r\n    function addCandidate(string _name) public adminOnly {\r\n        numCandidates++;\r\n        candidates[numCandidates] = Candidate({\r\n            id: numCandidates,\r\n            name: _name,\r\n            numVotes: 0\r\n        });\r\n    }\r\n\r\n    function getNumCandidates() public view returns (uint) {\r\n        return numCandidates;\r\n    }\r\n\r\n    function vote(uint _candidateId) public {\r\n        require(hasStarted == true);\r\n        require(hasEnded == false);\r\n        require(!voters[msg.sender]);\r\n        require(_candidateId > 0 && _candidateId <= numCandidates);\r\n        candidates[_candidateId].numVotes++;\r\n        voters[msg.sender] = true;\r\n    }\r\n\r\n    function start() public adminOnly {\r\n        hasStarted = true;\r\n    }\r\n\r\n    function end() public adminOnly {\r\n        hasEnded = true;\r\n    }\r\n\r\n    function getStart() public view returns (bool) {\r\n        return hasStarted;\r\n    }\r\n\r\n    function getEnd() public view returns (bool) {\r\n        return hasEnded;\r\n    }\r\n}",
  "sourcePath": "C:\\Users\\aweso\\Documents\\spring_2022\\cs_4675\\hw3\\contracts\\Election.sol",
  "compiler": {
    "name": "solc",
    "version": "0.4.17+commit.bdeb9e52.Emscripten.clang"
  },
  "schemaVersion": "3.4.5",
  "updatedAt": "2022-03-10T23:46:41.757Z",
  "networkType": "ethereum",
  "devdoc": {
    "methods": {}
  },
  "userdoc": {
    "methods": {}
  }
}