{
  "contractName": "Election",
  "abi": [
    {
      "constant": true,
      "inputs": [
        {
          "name": "",
          "type": "uint256"
        }
      ],
      "name": "candidates",
      "outputs": [
        {
          "name": "id",
          "type": "uint256"
        },
        {
          "name": "name",
          "type": "string"
        },
        {
          "name": "numVotes",
          "type": "uint256"
        }
      ],
      "payable": false,
      "stateMutability": "view",
      "type": "function"
    },
    {
      "constant": true,
      "inputs": [],
      "name": "numVoters",
      "outputs": [
        {
          "name": "",
          "type": "uint256"
        }
      ],
      "payable": false,
      "stateMutability": "view",
      "type": "function"
    },
    {
      "constant": true,
      "inputs": [],
      "name": "numCandidates",
      "outputs": [
        {
          "name": "",
          "type": "uint256"
        }
      ],
      "payable": false,
      "stateMutability": "view",
      "type": "function"
    },
    {
      "constant": true,
      "inputs": [],
      "name": "owner",
      "outputs": [
        {
          "name": "",
          "type": "address"
        }
      ],
      "payable": false,
      "stateMutability": "view",
      "type": "function"
    },
    {
      "constant": true,
      "inputs": [
        {
          "name": "",
          "type": "address"
        }
      ],
      "name": "voters",
      "outputs": [
        {
          "name": "voterAddress",
          "type": "address"
        },
        {
          "name": "name",
          "type": "string"
        },
        {
          "name": "hasVoted",
          "type": "bool"
        },
        {
          "name": "isVerified",
          "type": "bool"
        }
      ],
      "payable": false,
      "stateMutability": "view",
      "type": "function"
    },
    {
      "inputs": [],
      "payable": false,
      "stateMutability": "nonpayable",
      "type": "constructor"
    },
    {
      "constant": true,
      "inputs": [],
      "name": "getOwner",
      "outputs": [
        {
          "name": "",
          "type": "address"
        }
      ],
      "payable": false,
      "stateMutability": "view",
      "type": "function"
    },
    {
      "constant": false,
      "inputs": [
        {
          "name": "_name",
          "type": "string"
        }
      ],
      "name": "addCandidate",
      "outputs": [],
      "payable": false,
      "stateMutability": "nonpayable",
      "type": "function"
    },
    {
      "constant": true,
      "inputs": [],
      "name": "getNumCandidates",
      "outputs": [
        {
          "name": "",
          "type": "uint256"
        }
      ],
      "payable": false,
      "stateMutability": "view",
      "type": "function"
    },
    {
      "constant": false,
      "inputs": [
        {
          "name": "_name",
          "type": "string"
        }
      ],
      "name": "requestVoter",
      "outputs": [],
      "payable": false,
      "stateMutability": "nonpayable",
      "type": "function"
    },
    {
      "constant": true,
      "inputs": [],
      "name": "getNumVoters",
      "outputs": [
        {
          "name": "",
          "type": "uint256"
        }
      ],
      "payable": false,
      "stateMutability": "view",
      "type": "function"
    },
    {
      "constant": false,
      "inputs": [
        {
          "name": "_address",
          "type": "address"
        }
      ],
      "name": "verifyVoter",
      "outputs": [],
      "payable": false,
      "stateMutability": "nonpayable",
      "type": "function"
    },
    {
      "constant": false,
      "inputs": [
        {
          "name": "candidateId",
          "type": "uint256"
        }
      ],
      "name": "vote",
      "outputs": [],
      "payable": false,
      "stateMutability": "nonpayable",
      "type": "function"
    },
    {
      "constant": false,
      "inputs": [],
      "name": "start",
      "outputs": [],
      "payable": false,
      "stateMutability": "nonpayable",
      "type": "function"
    },
    {
      "constant": false,
      "inputs": [],
      "name": "end",
      "outputs": [],
      "payable": false,
      "stateMutability": "nonpayable",
      "type": "function"
    },
    {
      "constant": true,
      "inputs": [],
      "name": "getStart",
      "outputs": [
        {
          "name": "",
          "type": "bool"
        }
      ],
      "payable": false,
      "stateMutability": "view",
      "type": "function"
    },
    {
      "constant": true,
      "inputs": [],
      "name": "getEnd",
      "outputs": [
        {
          "name": "",
          "type": "bool"
        }
      ],
      "payable": false,
      "stateMutability": "view",
      "type": "function"
    }
  ],
  "bytecode": "0x6060604052341561000f57600080fd5b336000806101000a81548173ffffffffffffffffffffffffffffffffffffffff021916908373ffffffffffffffffffffffffffffffffffffffff16021790555060008060146101000a81548160ff02191690831515021790555060008060156101000a81548160ff02191690831515021790555060006001819055506000600381905550610cf3806100a26000396000f300606060405236156100e4576000357c0100000000000000000000000000000000000000000000000000000000900463ffffffff1680630121b93f146100e957806309bd09501461010c57806325bd79eb146101455780633477ee2e1461016e578063462e91ec146102355780634cbe32b8146102925780635216509a146102bb5780635c06b06e146102e45780635f5c243c1461030d578063893d20e81461036a5780638da5cb5b146103bf5780639f05a36d14610414578063a3ec138d14610441578063be9a655514610559578063c5292c671461056e578063efbe1c1c1461059b575b600080fd5b34156100f457600080fd5b61010a60048080359060200190919050506105b0565b005b341561011757600080fd5b610143600480803573ffffffffffffffffffffffffffffffffffffffff1690602001909190505061073c565b005b341561015057600080fd5b6101586107f5565b6040518082815260200191505060405180910390f35b341561017957600080fd5b61018f60048080359060200190919050506107ff565b60405180848152602001806020018381526020018281038252848181546001816001161561010002031660029004815260200191508054600181600116156101000203166002900480156102245780601f106101f957610100808354040283529160200191610224565b820191906000526020600020905b81548152906001019060200180831161020757829003601f168201915b505094505050505060405180910390f35b341561024057600080fd5b610290600480803590602001908201803590602001908080601f01602080910402602001604051908101604052809392919081815260200183838082843782019150505050505091905050610828565b005b341561029d57600080fd5b6102a5610900565b6040518082815260200191505060405180910390f35b34156102c657600080fd5b6102ce610906565b6040518082815260200191505060405180910390f35b34156102ef57600080fd5b6102f761090c565b6040518082815260200191505060405180910390f35b341561031857600080fd5b610368600480803590602001908201803590602001908080601f01602080910402602001604051908101604052809392919081815260200183838082843782019150505050505091905050610916565b005b341561037557600080fd5b61037d610a4f565b604051808273ffffffffffffffffffffffffffffffffffffffff1673ffffffffffffffffffffffffffffffffffffffff16815260200191505060405180910390f35b34156103ca57600080fd5b6103d2610a78565b604051808273ffffffffffffffffffffffffffffffffffffffff1673ffffffffffffffffffffffffffffffffffffffff16815260200191505060405180910390f35b341561041f57600080fd5b610427610a9d565b604051808215151515815260200191505060405180910390f35b341561044c57600080fd5b610478600480803573ffffffffffffffffffffffffffffffffffffffff16906020019091905050610ab3565b604051808573ffffffffffffffffffffffffffffffffffffffff1673ffffffffffffffffffffffffffffffffffffffff1681526020018060200184151515158152602001831515151581526020018281038252858181546001816001161561010002031660029004815260200191508054600181600116156101000203166002900480156105475780601f1061051c57610100808354040283529160200191610547565b820191906000526020600020905b81548152906001019060200180831161052a57829003601f168201915b50509550505050505060405180910390f35b341561056457600080fd5b61056c610b1c565b005b341561057957600080fd5b610581610b94565b604051808215151515815260200191505060405180910390f35b34156105a657600080fd5b6105ae610baa565b005b60011515600060149054906101000a900460ff1615151415156105d257600080fd5b60001515600060159054906101000a900460ff1615151415156105f457600080fd5b60001515600460003373ffffffffffffffffffffffffffffffffffffffff1673ffffffffffffffffffffffffffffffffffffffff16815260200190815260200160002060020160009054906101000a900460ff16151514151561065657600080fd5b60011515600460003373ffffffffffffffffffffffffffffffffffffffff1673ffffffffffffffffffffffffffffffffffffffff16815260200190815260200160002060020160019054906101000a900460ff1615151415156106b857600080fd5b60026000828152602001908152602001600020600201600081548092919060010191905055506001600460003373ffffffffffffffffffffffffffffffffffffffff1673ffffffffffffffffffffffffffffffffffffffff16815260200190815260200160002060020160006101000a81548160ff02191690831515021790555050565b6000809054906101000a900473ffffffffffffffffffffffffffffffffffffffff1673ffffffffffffffffffffffffffffffffffffffff163373ffffffffffffffffffffffffffffffffffffffff1614151561079757600080fd5b6001600460008373ffffffffffffffffffffffffffffffffffffffff1673ffffffffffffffffffffffffffffffffffffffff16815260200190815260200160002060020160016101000a81548160ff02191690831515021790555050565b6000600354905090565b600260205280600052604060002060009150905080600001549080600101908060020154905083565b6000809054906101000a900473ffffffffffffffffffffffffffffffffffffffff1673ffffffffffffffffffffffffffffffffffffffff163373ffffffffffffffffffffffffffffffffffffffff1614151561088357600080fd5b600160008154809291906001019190505550606060405190810160405280600154815260200182815260200160008152506002600060015481526020019081526020016000206000820151816000015560208201518160010190805190602001906108ef929190610c22565b506040820151816002015590505050565b60035481565b60015481565b6000600154905090565b6003600081548092919060010191905055506080604051908101604052803373ffffffffffffffffffffffffffffffffffffffff16815260200182815260200160001515815260200160001515815250600460003373ffffffffffffffffffffffffffffffffffffffff1673ffffffffffffffffffffffffffffffffffffffff16815260200190815260200160002060008201518160000160006101000a81548173ffffffffffffffffffffffffffffffffffffffff021916908373ffffffffffffffffffffffffffffffffffffffff1602179055506020820151816001019080519060200190610a08929190610c22565b5060408201518160020160006101000a81548160ff02191690831515021790555060608201518160020160016101000a81548160ff02191690831515021790555090505050565b60008060009054906101000a900473ffffffffffffffffffffffffffffffffffffffff16905090565b6000809054906101000a900473ffffffffffffffffffffffffffffffffffffffff1681565b60008060159054906101000a900460ff16905090565b60046020528060005260406000206000915090508060000160009054906101000a900473ffffffffffffffffffffffffffffffffffffffff169080600101908060020160009054906101000a900460ff16908060020160019054906101000a900460ff16905084565b6000809054906101000a900473ffffffffffffffffffffffffffffffffffffffff1673ffffffffffffffffffffffffffffffffffffffff163373ffffffffffffffffffffffffffffffffffffffff16141515610b7757600080fd5b6001600060146101000a81548160ff021916908315150217905550565b60008060149054906101000a900460ff16905090565b6000809054906101000a900473ffffffffffffffffffffffffffffffffffffffff1673ffffffffffffffffffffffffffffffffffffffff163373ffffffffffffffffffffffffffffffffffffffff16141515610c0557600080fd5b6001600060156101000a81548160ff021916908315150217905550565b828054600181600116156101000203166002900490600052602060002090601f016020900481019282601f10610c6357805160ff1916838001178555610c91565b82800160010185558215610c91579182015b82811115610c90578251825591602001919060010190610c75565b5b509050610c9e9190610ca2565b5090565b610cc491905b80821115610cc0576000816000905550600101610ca8565b5090565b905600a165627a7a72305820fdcc6a447709c7b4e2e25c33ddaa86ca6b54674a014994803373f14ba858a5a70029",
  "source": "// SPDX-License-Identifier: MIT\r\npragma solidity ^0.4.17;\r\n\r\ncontract Election {\r\n    // model variables\r\n    address public owner;\r\n    bool hasStarted;\r\n    bool hasEnded;\r\n    uint public numCandidates;\r\n    struct Candidate {\r\n        uint id;\r\n        string name;\r\n        uint numVotes;\r\n    }\r\n    mapping(uint => Candidate) public candidates;\r\n    uint public numVoters;\r\n    struct Voter {\r\n        address voterAddress;\r\n        string name;\r\n        bool hasVoted;\r\n        bool isVerified;\r\n    }\r\n    mapping(address => Voter) public voters;\r\n\r\n    function Election() public {\r\n        owner = msg.sender;\r\n        hasStarted = false;\r\n        hasEnded = false;\r\n        numCandidates = 0;\r\n        numVoters = 0;\r\n    }\r\n\r\n    function getOwner() public view returns (address) {\r\n        return owner;\r\n    }\r\n\r\n    // restrict functions to admin view\r\n    modifier adminOnly() {\r\n        require(msg.sender == owner);\r\n        _;\r\n    }\r\n\r\n    function addCandidate(string _name) public adminOnly {\r\n        numCandidates++;\r\n        candidates[numCandidates] = Candidate({\r\n            id: numCandidates,\r\n            name: _name,\r\n            numVotes: 0\r\n        });\r\n    }\r\n\r\n    function getNumCandidates() public view returns (uint) {\r\n        return numCandidates;\r\n    }\r\n\r\n    function requestVoter(string _name) public {\r\n        numVoters++;\r\n        voters[msg.sender] = Voter({\r\n            voterAddress: msg.sender,\r\n            name: _name,\r\n            hasVoted: false,\r\n            isVerified: false\r\n        });\r\n    }\r\n\r\n    function getNumVoters() public view returns (uint) {\r\n        return numVoters;\r\n    }\r\n\r\n    function verifyVoter(address _address) public adminOnly {\r\n        voters[_address].isVerified = true;\r\n    }\r\n\r\n    function vote(uint candidateId) public {\r\n        require(hasStarted == true);\r\n        require(hasEnded == false);\r\n        require(voters[msg.sender].hasVoted == false);\r\n        require(voters[msg.sender].isVerified == true);\r\n        candidates[candidateId].numVotes++;\r\n        voters[msg.sender].hasVoted = true;\r\n    }\r\n\r\n    function start() public adminOnly {\r\n        hasStarted = true;\r\n    }\r\n\r\n    function end() public adminOnly {\r\n        hasEnded = true;\r\n    }\r\n\r\n    function getStart() public view returns (bool) {\r\n        return hasStarted;\r\n    }\r\n\r\n    function getEnd() public view returns (bool) {\r\n        return hasEnded;\r\n    }\r\n}",
  "sourcePath": "C:\\Users\\aweso\\Documents\\spring_2022\\cs_4675\\hw3\\contracts\\Election.sol",
  "compiler": {
    "name": "solc",
    "version": "0.4.17+commit.bdeb9e52.Emscripten.clang"
  },
  "schemaVersion": "3.4.5",
  "updatedAt": "2022-03-10T05:41:15.937Z",
  "networkType": "ethereum",
  "devdoc": {
    "methods": {}
  },
  "userdoc": {
    "methods": {}
  }
}