{
  "contractName": "Election",
  "abi": [
    {
      "constant": true,
      "inputs": [
        {
          "name": "",
          "type": "uint256"
        }
      ],
      "name": "candidates",
      "outputs": [
        {
          "name": "id",
          "type": "uint256"
        },
        {
          "name": "name",
          "type": "string"
        },
        {
          "name": "numVotes",
          "type": "uint256"
        }
      ],
      "payable": false,
      "stateMutability": "view",
      "type": "function"
    },
    {
      "constant": true,
      "inputs": [],
      "name": "numCandidates",
      "outputs": [
        {
          "name": "",
          "type": "uint256"
        }
      ],
      "payable": false,
      "stateMutability": "view",
      "type": "function"
    },
    {
      "constant": true,
      "inputs": [],
      "name": "owner",
      "outputs": [
        {
          "name": "",
          "type": "address"
        }
      ],
      "payable": false,
      "stateMutability": "view",
      "type": "function"
    },
    {
      "constant": true,
      "inputs": [
        {
          "name": "",
          "type": "address"
        }
      ],
      "name": "voters",
      "outputs": [
        {
          "name": "",
          "type": "bool"
        }
      ],
      "payable": false,
      "stateMutability": "view",
      "type": "function"
    },
    {
      "inputs": [],
      "payable": false,
      "stateMutability": "nonpayable",
      "type": "constructor"
    },
    {
      "constant": true,
      "inputs": [],
      "name": "getOwner",
      "outputs": [
        {
          "name": "",
          "type": "address"
        }
      ],
      "payable": false,
      "stateMutability": "view",
      "type": "function"
    },
    {
      "constant": false,
      "inputs": [
        {
          "name": "_name",
          "type": "string"
        }
      ],
      "name": "addCandidate",
      "outputs": [],
      "payable": false,
      "stateMutability": "nonpayable",
      "type": "function"
    },
    {
      "constant": true,
      "inputs": [],
      "name": "getNumCandidates",
      "outputs": [
        {
          "name": "",
          "type": "uint256"
        }
      ],
      "payable": false,
      "stateMutability": "view",
      "type": "function"
    },
    {
      "constant": true,
      "inputs": [
        {
          "name": "_candidateId",
          "type": "uint256"
        }
      ],
      "name": "getCandidateName",
      "outputs": [
        {
          "name": "",
          "type": "string"
        }
      ],
      "payable": false,
      "stateMutability": "view",
      "type": "function"
    },
    {
      "constant": true,
      "inputs": [
        {
          "name": "_candidateId",
          "type": "uint256"
        }
      ],
      "name": "getCandidateVotes",
      "outputs": [
        {
          "name": "",
          "type": "uint256"
        }
      ],
      "payable": false,
      "stateMutability": "view",
      "type": "function"
    },
    {
      "constant": false,
      "inputs": [
        {
          "name": "_candidateId",
          "type": "uint256"
        }
      ],
      "name": "vote",
      "outputs": [],
      "payable": false,
      "stateMutability": "nonpayable",
      "type": "function"
    },
    {
      "constant": false,
      "inputs": [],
      "name": "start",
      "outputs": [],
      "payable": false,
      "stateMutability": "nonpayable",
      "type": "function"
    },
    {
      "constant": false,
      "inputs": [],
      "name": "end",
      "outputs": [],
      "payable": false,
      "stateMutability": "nonpayable",
      "type": "function"
    },
    {
      "constant": true,
      "inputs": [],
      "name": "getStart",
      "outputs": [
        {
          "name": "",
          "type": "bool"
        }
      ],
      "payable": false,
      "stateMutability": "view",
      "type": "function"
    },
    {
      "constant": true,
      "inputs": [],
      "name": "getEnd",
      "outputs": [
        {
          "name": "",
          "type": "bool"
        }
      ],
      "payable": false,
      "stateMutability": "view",
      "type": "function"
    }
  ],
  "bytecode": "0x6060604052341561000f57600080fd5b336000806101000a81548173ffffffffffffffffffffffffffffffffffffffff021916908373ffffffffffffffffffffffffffffffffffffffff16021790555060008060146101000a81548160ff02191690831515021790555060008060156101000a81548160ff0219169083151502179055506000600181905550610a908061009a6000396000f300606060405236156100ce576000357c0100000000000000000000000000000000000000000000000000000000900463ffffffff1680630121b93f146100d35780633477ee2e146100f6578063462e91ec146101bd5780635216509a1461021a5780635c06b06e14610243578063866163c01461026c578063893d20e8146102a35780638da5cb5b146102f85780639f05a36d1461034d578063a3ec138d1461037a578063be9a6555146103cb578063c5292c67146103e0578063e13804a71461040d578063efbe1c1c146104a9575b600080fd5b34156100de57600080fd5b6100f460048080359060200190919050506104be565b005b341561010157600080fd5b61011760048080359060200190919050506105f9565b60405180848152602001806020018381526020018281038252848181546001816001161561010002031660029004815260200191508054600181600116156101000203166002900480156101ac5780601f10610181576101008083540402835291602001916101ac565b820191906000526020600020905b81548152906001019060200180831161018f57829003601f168201915b505094505050505060405180910390f35b34156101c857600080fd5b610218600480803590602001908201803590602001908080601f01602080910402602001604051908101604052809392919081815260200183838082843782019150505050505091905050610622565b005b341561022557600080fd5b61022d6106fa565b6040518082815260200191505060405180910390f35b341561024e57600080fd5b610256610700565b6040518082815260200191505060405180910390f35b341561027757600080fd5b61028d600480803590602001909190505061070a565b6040518082815260200191505060405180910390f35b34156102ae57600080fd5b6102b6610746565b604051808273ffffffffffffffffffffffffffffffffffffffff1673ffffffffffffffffffffffffffffffffffffffff16815260200191505060405180910390f35b341561030357600080fd5b61030b61076f565b604051808273ffffffffffffffffffffffffffffffffffffffff1673ffffffffffffffffffffffffffffffffffffffff16815260200191505060405180910390f35b341561035857600080fd5b610360610794565b604051808215151515815260200191505060405180910390f35b341561038557600080fd5b6103b1600480803573ffffffffffffffffffffffffffffffffffffffff169060200190919050506107aa565b604051808215151515815260200191505060405180910390f35b34156103d657600080fd5b6103de6107ca565b005b34156103eb57600080fd5b6103f3610842565b604051808215151515815260200191505060405180910390f35b341561041857600080fd5b61042e6004808035906020019091905050610858565b6040518080602001828103825283818151815260200191508051906020019080838360005b8381101561046e578082015181840152602081019050610453565b50505050905090810190601f16801561049b5780820380516001836020036101000a031916815260200191505b509250505060405180910390f35b34156104b457600080fd5b6104bc610933565b005b60011515600060149054906101000a900460ff1615151415156104e057600080fd5b60001515600060159054906101000a900460ff16151514151561050257600080fd5b600360003373ffffffffffffffffffffffffffffffffffffffff1673ffffffffffffffffffffffffffffffffffffffff16815260200190815260200160002060009054906101000a900460ff1615151561055b57600080fd5b60008111801561056d57506001548111155b151561057857600080fd5b60026000828152602001908152602001600020600201600081548092919060010191905055506001600360003373ffffffffffffffffffffffffffffffffffffffff1673ffffffffffffffffffffffffffffffffffffffff16815260200190815260200160002060006101000a81548160ff02191690831515021790555050565b600260205280600052604060002060009150905080600001549080600101908060020154905083565b6000809054906101000a900473ffffffffffffffffffffffffffffffffffffffff1673ffffffffffffffffffffffffffffffffffffffff163373ffffffffffffffffffffffffffffffffffffffff1614151561067d57600080fd5b600160008154809291906001019190505550606060405190810160405280600154815260200182815260200160008152506002600060015481526020019081526020016000206000820151816000015560208201518160010190805190602001906106e99291906109ab565b506040820151816002015590505050565b60015481565b6000600154905090565b6000808211801561071d57506001548211155b151561072857600080fd5b60026000838152602001908152602001600020600201549050919050565b60008060009054906101000a900473ffffffffffffffffffffffffffffffffffffffff16905090565b6000809054906101000a900473ffffffffffffffffffffffffffffffffffffffff1681565b60008060159054906101000a900460ff16905090565b60036020528060005260406000206000915054906101000a900460ff1681565b6000809054906101000a900473ffffffffffffffffffffffffffffffffffffffff1673ffffffffffffffffffffffffffffffffffffffff163373ffffffffffffffffffffffffffffffffffffffff1614151561082557600080fd5b6001600060146101000a81548160ff021916908315150217905550565b60008060149054906101000a900460ff16905090565b610860610a2b565b60008211801561087257506001548211155b151561087d57600080fd5b600260008381526020019081526020016000206001018054600181600116156101000203166002900480601f0160208091040260200160405190810160405280929190818152602001828054600181600116156101000203166002900480156109275780601f106108fc57610100808354040283529160200191610927565b820191906000526020600020905b81548152906001019060200180831161090a57829003601f168201915b50505050509050919050565b6000809054906101000a900473ffffffffffffffffffffffffffffffffffffffff1673ffffffffffffffffffffffffffffffffffffffff163373ffffffffffffffffffffffffffffffffffffffff1614151561098e57600080fd5b6001600060156101000a81548160ff021916908315150217905550565b828054600181600116156101000203166002900490600052602060002090601f016020900481019282601f106109ec57805160ff1916838001178555610a1a565b82800160010185558215610a1a579182015b82811115610a195782518255916020019190600101906109fe565b5b509050610a279190610a3f565b5090565b602060405190810160405280600081525090565b610a6191905b80821115610a5d576000816000905550600101610a45565b5090565b905600a165627a7a723058200fd304999a89c94279c2372ca43d5c98bb1e33c6de510aa00ad6f316294b31f60029",
  "source": "// SPDX-License-Identifier: MIT\r\npragma solidity ^0.4.17;\r\n\r\ncontract Election {\r\n    // model variables\r\n    address public owner;\r\n    bool hasStarted;\r\n    bool hasEnded;\r\n    uint public numCandidates;\r\n    struct Candidate {\r\n        uint id;\r\n        string name;\r\n        uint numVotes;\r\n    }\r\n    mapping(uint => Candidate) public candidates;\r\n    mapping(address => bool) public voters;\r\n\r\n    function Election() public {\r\n        owner = msg.sender;\r\n        hasStarted = false;\r\n        hasEnded = false;\r\n        numCandidates = 0;\r\n    }\r\n\r\n    function getOwner() public view returns (address) {\r\n        return owner;\r\n    }\r\n\r\n    // restrict functions to admin view\r\n    modifier adminOnly() {\r\n        require(msg.sender == owner);\r\n        _;\r\n    }\r\n\r\n    function addCandidate(string _name) public adminOnly {\r\n        numCandidates++;\r\n        candidates[numCandidates] = Candidate({\r\n            id: numCandidates,\r\n            name: _name,\r\n            numVotes: 0\r\n        });\r\n    }\r\n\r\n    function getNumCandidates() public view returns (uint) {\r\n        return numCandidates;\r\n    }\r\n\r\n    function getCandidateName(uint _candidateId) public view returns (string) {\r\n        require(_candidateId > 0 && _candidateId <= numCandidates);\r\n        return candidates[_candidateId].name;\r\n    }\r\n\r\n    function getCandidateVotes(uint _candidateId) public view returns (uint) {\r\n        require(_candidateId > 0 && _candidateId <= numCandidates);\r\n        return candidates[_candidateId].numVotes;\r\n    }\r\n\r\n    function vote(uint _candidateId) public {\r\n        require(hasStarted == true);\r\n        require(hasEnded == false);\r\n        require(!voters[msg.sender]);\r\n        require(_candidateId > 0 && _candidateId <= numCandidates);\r\n        candidates[_candidateId].numVotes++;\r\n        voters[msg.sender] = true;\r\n    }\r\n\r\n    function start() public adminOnly {\r\n        hasStarted = true;\r\n    }\r\n\r\n    function end() public adminOnly {\r\n        hasEnded = true;\r\n    }\r\n\r\n    function getStart() public view returns (bool) {\r\n        return hasStarted;\r\n    }\r\n\r\n    function getEnd() public view returns (bool) {\r\n        return hasEnded;\r\n    }\r\n}",
  "sourcePath": "C:\\Users\\aweso\\Documents\\spring_2022\\cs_4675\\hw3\\contracts\\Election.sol",
  "compiler": {
    "name": "solc",
    "version": "0.4.17+commit.bdeb9e52.Emscripten.clang"
  },
  "schemaVersion": "3.4.5",
  "updatedAt": "2022-03-11T02:25:24.394Z",
  "networkType": "ethereum",
  "devdoc": {
    "methods": {}
  },
  "userdoc": {
    "methods": {}
  }
}